{
  "_format": "hh-sol-artifact-1",
  "contractName": "Evault",
  "sourceName": "contracts/Evault.sol",
  "abi": [
    {
      "inputs": [
        {
          "internalType": "address",
          "name": "_clientAddress",
          "type": "address"
        },
        {
          "internalType": "string",
          "name": "_name",
          "type": "string"
        }
      ],
      "name": "addClient",
      "outputs": [],
      "stateMutability": "nonpayable",
      "type": "function"
    },
    {
      "inputs": [
        {
          "internalType": "uint256",
          "name": "_caseId",
          "type": "uint256"
        },
        {
          "internalType": "string",
          "name": "_documentHash",
          "type": "string"
        },
        {
          "internalType": "string",
          "name": "_description",
          "type": "string"
        }
      ],
      "name": "addDocument",
      "outputs": [],
      "stateMutability": "nonpayable",
      "type": "function"
    },
    {
      "inputs": [
        {
          "internalType": "address",
          "name": "_judgeAddress",
          "type": "address"
        },
        {
          "internalType": "string",
          "name": "_name",
          "type": "string"
        }
      ],
      "name": "addJudge",
      "outputs": [],
      "stateMutability": "nonpayable",
      "type": "function"
    },
    {
      "inputs": [
        {
          "internalType": "address",
          "name": "_lawyerAddress",
          "type": "address"
        },
        {
          "internalType": "string",
          "name": "_name",
          "type": "string"
        }
      ],
      "name": "addLawyer",
      "outputs": [],
      "stateMutability": "nonpayable",
      "type": "function"
    },
    {
      "inputs": [],
      "name": "admin",
      "outputs": [
        {
          "internalType": "address",
          "name": "",
          "type": "address"
        }
      ],
      "stateMutability": "view",
      "type": "function"
    },
    {
      "inputs": [],
      "name": "caseIdCounter",
      "outputs": [
        {
          "internalType": "uint256",
          "name": "",
          "type": "uint256"
        }
      ],
      "stateMutability": "view",
      "type": "function"
    },
    {
      "inputs": [
        {
          "internalType": "uint256",
          "name": "",
          "type": "uint256"
        }
      ],
      "name": "caseList",
      "outputs": [
        {
          "internalType": "uint256",
          "name": "caseId",
          "type": "uint256"
        },
        {
          "internalType": "string",
          "name": "caseName",
          "type": "string"
        },
        {
          "internalType": "string",
          "name": "caseDesc",
          "type": "string"
        },
        {
          "internalType": "uint256",
          "name": "documentCount",
          "type": "uint256"
        }
      ],
      "stateMutability": "view",
      "type": "function"
    },
    {
      "inputs": [
        {
          "internalType": "uint256",
          "name": "",
          "type": "uint256"
        }
      ],
      "name": "cases",
      "outputs": [
        {
          "internalType": "uint256",
          "name": "caseId",
          "type": "uint256"
        },
        {
          "internalType": "string",
          "name": "caseName",
          "type": "string"
        },
        {
          "internalType": "string",
          "name": "caseDesc",
          "type": "string"
        },
        {
          "internalType": "uint256",
          "name": "documentCount",
          "type": "uint256"
        }
      ],
      "stateMutability": "view",
      "type": "function"
    },
    {
      "inputs": [
        {
          "internalType": "uint256",
          "name": "",
          "type": "uint256"
        }
      ],
      "name": "clientList",
      "outputs": [
        {
          "internalType": "address",
          "name": "clientAddress",
          "type": "address"
        },
        {
          "internalType": "string",
          "name": "name",
          "type": "string"
        }
      ],
      "stateMutability": "view",
      "type": "function"
    },
    {
      "inputs": [
        {
          "internalType": "address",
          "name": "",
          "type": "address"
        }
      ],
      "name": "clients",
      "outputs": [
        {
          "internalType": "address",
          "name": "clientAddress",
          "type": "address"
        },
        {
          "internalType": "string",
          "name": "name",
          "type": "string"
        }
      ],
      "stateMutability": "view",
      "type": "function"
    },
    {
      "inputs": [
        {
          "internalType": "string",
          "name": "_caseName",
          "type": "string"
        },
        {
          "internalType": "string",
          "name": "_caseDesc",
          "type": "string"
        },
        {
          "internalType": "address[]",
          "name": "_judgeAddresses",
          "type": "address[]"
        },
        {
          "internalType": "address[]",
          "name": "_clientAddresses",
          "type": "address[]"
        },
        {
          "internalType": "address[]",
          "name": "_lawyerAddresses",
          "type": "address[]"
        }
      ],
      "name": "createCase",
      "outputs": [],
      "stateMutability": "nonpayable",
      "type": "function"
    },
    {
      "inputs": [],
      "name": "getAllCaseIdsAndNames",
      "outputs": [
        {
          "internalType": "uint256[]",
          "name": "",
          "type": "uint256[]"
        },
        {
          "internalType": "string[]",
          "name": "",
          "type": "string[]"
        },
        {
          "internalType": "string[]",
          "name": "",
          "type": "string[]"
        }
      ],
      "stateMutability": "view",
      "type": "function"
    },
    {
      "inputs": [
        {
          "internalType": "uint256",
          "name": "_caseId",
          "type": "uint256"
        }
      ],
      "name": "getCaseDetails",
      "outputs": [
        {
          "internalType": "string",
          "name": "caseName",
          "type": "string"
        },
        {
          "internalType": "string",
          "name": "caseDesc",
          "type": "string"
        },
        {
          "internalType": "address[]",
          "name": "judgeAddresses",
          "type": "address[]"
        },
        {
          "internalType": "address[]",
          "name": "lawyerAddresses",
          "type": "address[]"
        },
        {
          "internalType": "address[]",
          "name": "clientAddresses",
          "type": "address[]"
        },
        {
          "internalType": "string[]",
          "name": "documentHashes",
          "type": "string[]"
        },
        {
          "internalType": "string[]",
          "name": "documentDescriptions",
          "type": "string[]"
        },
        {
          "internalType": "address[]",
          "name": "documentUploaders",
          "type": "address[]"
        }
      ],
      "stateMutability": "view",
      "type": "function"
    },
    {
      "inputs": [
        {
          "internalType": "address",
          "name": "_clientAddress",
          "type": "address"
        }
      ],
      "name": "getClientCaseIds",
      "outputs": [
        {
          "internalType": "uint256[]",
          "name": "",
          "type": "uint256[]"
        }
      ],
      "stateMutability": "view",
      "type": "function"
    },
    {
      "inputs": [],
      "name": "getClientList",
      "outputs": [
        {
          "components": [
            {
              "internalType": "address",
              "name": "clientAddress",
              "type": "address"
            },
            {
              "internalType": "string",
              "name": "name",
              "type": "string"
            },
            {
              "internalType": "uint256[]",
              "name": "caseIds",
              "type": "uint256[]"
            }
          ],
          "internalType": "struct Evault.Client[]",
          "name": "",
          "type": "tuple[]"
        }
      ],
      "stateMutability": "view",
      "type": "function"
    },
    {
      "inputs": [
        {
          "internalType": "address",
          "name": "_judgeAddress",
          "type": "address"
        }
      ],
      "name": "getJudgeCaseIds",
      "outputs": [
        {
          "internalType": "uint256[]",
          "name": "",
          "type": "uint256[]"
        }
      ],
      "stateMutability": "view",
      "type": "function"
    },
    {
      "inputs": [],
      "name": "getJudgeList",
      "outputs": [
        {
          "components": [
            {
              "internalType": "address",
              "name": "judgeAddress",
              "type": "address"
            },
            {
              "internalType": "string",
              "name": "name",
              "type": "string"
            },
            {
              "internalType": "uint256[]",
              "name": "caseIds",
              "type": "uint256[]"
            }
          ],
          "internalType": "struct Evault.Judge[]",
          "name": "",
          "type": "tuple[]"
        }
      ],
      "stateMutability": "view",
      "type": "function"
    },
    {
      "inputs": [
        {
          "internalType": "address",
          "name": "_lawyerAddress",
          "type": "address"
        }
      ],
      "name": "getLawyerCaseIds",
      "outputs": [
        {
          "internalType": "uint256[]",
          "name": "",
          "type": "uint256[]"
        }
      ],
      "stateMutability": "view",
      "type": "function"
    },
    {
      "inputs": [],
      "name": "getLawyerList",
      "outputs": [
        {
          "components": [
            {
              "internalType": "address",
              "name": "lawyerAddress",
              "type": "address"
            },
            {
              "internalType": "string",
              "name": "name",
              "type": "string"
            },
            {
              "internalType": "uint256[]",
              "name": "caseIds",
              "type": "uint256[]"
            }
          ],
          "internalType": "struct Evault.Lawyer[]",
          "name": "",
          "type": "tuple[]"
        }
      ],
      "stateMutability": "view",
      "type": "function"
    },
    {
      "inputs": [
        {
          "internalType": "address",
          "name": "member",
          "type": "address"
        }
      ],
      "name": "isClient",
      "outputs": [
        {
          "internalType": "bool",
          "name": "",
          "type": "bool"
        }
      ],
      "stateMutability": "view",
      "type": "function"
    },
    {
      "inputs": [
        {
          "internalType": "address",
          "name": "member",
          "type": "address"
        }
      ],
      "name": "isJudge",
      "outputs": [
        {
          "internalType": "bool",
          "name": "",
          "type": "bool"
        }
      ],
      "stateMutability": "view",
      "type": "function"
    },
    {
      "inputs": [
        {
          "internalType": "address",
          "name": "member",
          "type": "address"
        }
      ],
      "name": "isLawyer",
      "outputs": [
        {
          "internalType": "bool",
          "name": "",
          "type": "bool"
        }
      ],
      "stateMutability": "view",
      "type": "function"
    },
    {
      "inputs": [
        {
          "internalType": "uint256",
          "name": "",
          "type": "uint256"
        }
      ],
      "name": "judgeList",
      "outputs": [
        {
          "internalType": "address",
          "name": "judgeAddress",
          "type": "address"
        },
        {
          "internalType": "string",
          "name": "name",
          "type": "string"
        }
      ],
      "stateMutability": "view",
      "type": "function"
    },
    {
      "inputs": [
        {
          "internalType": "address",
          "name": "",
          "type": "address"
        }
      ],
      "name": "judges",
      "outputs": [
        {
          "internalType": "address",
          "name": "judgeAddress",
          "type": "address"
        },
        {
          "internalType": "string",
          "name": "name",
          "type": "string"
        }
      ],
      "stateMutability": "view",
      "type": "function"
    },
    {
      "inputs": [
        {
          "internalType": "uint256",
          "name": "",
          "type": "uint256"
        }
      ],
      "name": "lawyerList",
      "outputs": [
        {
          "internalType": "address",
          "name": "lawyerAddress",
          "type": "address"
        },
        {
          "internalType": "string",
          "name": "name",
          "type": "string"
        }
      ],
      "stateMutability": "view",
      "type": "function"
    },
    {
      "inputs": [
        {
          "internalType": "address",
          "name": "",
          "type": "address"
        }
      ],
      "name": "lawyers",
      "outputs": [
        {
          "internalType": "address",
          "name": "lawyerAddress",
          "type": "address"
        },
        {
          "internalType": "string",
          "name": "name",
          "type": "string"
        }
      ],
      "stateMutability": "view",
      "type": "function"
    }
  ],
  "bytecode": "0x60806040527346a2a666fc06681e2cb49440a0776a6c4cc219066000806101000a81548173ffffffffffffffffffffffffffffffffffffffff021916908373ffffffffffffffffffffffffffffffffffffffff160217905550600160095534801561006957600080fd5b50614e1b806100796000396000f3fe608060405234801561001057600080fd5b506004361061018e5760003560e01c8063916a1c70116100de578063d644f76711610097578063ee43987211610071578063ee4398721461052f578063f09790dd1461054b578063f205ffa91461057e578063f851a4401461059a5761018e565b8063d644f767146104c5578063e292ec08146104e3578063ed896d66146104ff5761018e565b8063916a1c70146103ab578063a3337046146103dc578063b9c51b3d1461040c578063bb69350d1461042a578063c3a906351461045d578063d2b0ee5c146104945761018e565b806366267d9b1161014b57806383c0c8831161012557806383c0c883146103105780638422a2f21461032c57806384b7964f1461035d57806384d36adb1461038d5761018e565b806366267d9b146102935780636a2fe7a5146102af57806371459545146102e05761018e565b806301e2805a146101935780630d716890146101b35780634e68204c146101d1578063554ae567146102015780635939a84e1461023257806361eed2a914610262575b600080fd5b61019b6105b8565b6040516101aa939291906136cd565b60405180910390f35b6101bb610896565b6040516101c891906138e2565b60405180910390f35b6101eb60048036038101906101e69190613944565b610a35565b6040516101f89190613971565b60405180910390f35b61021b60048036038101906102169190613944565b610acf565b6040516102299291906139ec565b60405180910390f35b61024c60048036038101906102479190613944565b610b9b565b6040516102599190613a37565b60405180910390f35b61027c60048036038101906102779190613944565b610c50565b60405161028a9291906139ec565b60405180910390f35b6102ad60048036038101906102a89190613b87565b610d1c565b005b6102c960048036038101906102c49190613c0f565b61108c565b6040516102d79291906139ec565b60405180910390f35b6102fa60048036038101906102f59190613944565b611168565b6040516103079190613971565b60405180910390f35b61032a60048036038101906103259190613c3c565b611202565b005b61034660048036038101906103419190613944565b611401565b6040516103549291906139ec565b60405180910390f35b61037760048036038101906103729190613944565b6114cd565b6040516103849190613a37565b60405180910390f35b610395611582565b6040516103a29190613cd6565b60405180910390f35b6103c560048036038101906103c09190613c0f565b611588565b6040516103d39291906139ec565b60405180910390f35b6103f660048036038101906103f19190613944565b611664565b6040516104039190613971565b60405180910390f35b6104146116fe565b6040516104219190613e0a565b60405180910390f35b610444600480360381019061043f9190613c0f565b61189d565b6040516104549493929190613e2c565b60405180910390f35b61047760048036038101906104729190613c0f565b6119ed565b60405161048b989796959493929190613f2e565b60405180910390f35b6104ae60048036038101906104a99190613c0f565b611ff3565b6040516104bc9291906139ec565b60405180910390f35b6104cd6120cf565b6040516104da91906140fd565b60405180910390f35b6104fd60048036038101906104f89190613b87565b61226e565b005b61051960048036038101906105149190613944565b6125de565b6040516105269190613a37565b60405180910390f35b61054960048036038101906105449190613b87565b612693565b005b61056560048036038101906105609190613c0f565b612a03565b6040516105759493929190613e2c565b60405180910390f35b610598600480360381019061059391906141e7565b612b43565b005b6105a2613206565b6040516105af91906142ee565b60405180910390f35b6060806060600060095467ffffffffffffffff8111156105db576105da613a5c565b5b6040519080825280602002602001820160405280156106095781602001602082028036833780820191505090505b509050600060095467ffffffffffffffff81111561062a57610629613a5c565b5b60405190808252806020026020018201604052801561065d57816020015b60608152602001906001900390816106485790505b509050600060095467ffffffffffffffff81111561067e5761067d613a5c565b5b6040519080825280602002602001820160405280156106b157816020015b606081526020019060019003908161069c5790505b50905060005b6009548110156108845760086000828152602001908152602001600020600001548482815181106106eb576106ea614309565b5b60200260200101818152505060086000828152602001908152602001600020600101805461071890614367565b80601f016020809104026020016040519081016040528092919081815260200182805461074490614367565b80156107915780601f1061076657610100808354040283529160200191610791565b820191906000526020600020905b81548152906001019060200180831161077457829003601f168201915b50505050508382815181106107a9576107a8614309565b5b60200260200101819052506008600082815260200190815260200160002060020180546107d590614367565b80601f016020809104026020016040519081016040528092919081815260200182805461080190614367565b801561084e5780601f106108235761010080835404028352916020019161084e565b820191906000526020600020905b81548152906001019060200180831161083157829003601f168201915b505050505082828151811061086657610865614309565b5b6020026020010181905250808061087c906143c7565b9150506106b7565b50828282955095509550505050909192565b60606003805480602002602001604051908101604052809291908181526020016000905b82821015610a2c57838290600052602060002090600302016040518060600160405290816000820160009054906101000a900473ffffffffffffffffffffffffffffffffffffffff1673ffffffffffffffffffffffffffffffffffffffff1673ffffffffffffffffffffffffffffffffffffffff16815260200160018201805461094390614367565b80601f016020809104026020016040519081016040528092919081815260200182805461096f90614367565b80156109bc5780601f10610991576101008083540402835291602001916109bc565b820191906000526020600020905b81548152906001019060200180831161099f57829003601f168201915b5050505050815260200160028201805480602002602001604051908101604052809291908181526020018280548015610a1457602002820191906000526020600020905b815481526020019060010190808311610a00575b505050505081525050815260200190600101906108ba565b50505050905090565b6060600760008373ffffffffffffffffffffffffffffffffffffffff1673ffffffffffffffffffffffffffffffffffffffff168152602001908152602001600020600201805480602002602001604051908101604052809291908181526020018280548015610ac357602002820191906000526020600020905b815481526020019060010190808311610aaf575b50505050509050919050565b60076020528060005260406000206000915090508060000160009054906101000a900473ffffffffffffffffffffffffffffffffffffffff1690806001018054610b1890614367565b80601f0160208091040260200160405190810160405280929190818152602001828054610b4490614367565b8015610b915780601f10610b6657610100808354040283529160200191610b91565b820191906000526020600020905b815481529060010190602001808311610b7457829003601f168201915b5050505050905082565b600080600090505b600380549050811015610c45578273ffffffffffffffffffffffffffffffffffffffff1660038281548110610bdb57610bda614309565b5b906000526020600020906003020160000160009054906101000a900473ffffffffffffffffffffffffffffffffffffffff1673ffffffffffffffffffffffffffffffffffffffff1603610c32576001915050610c4b565b8080610c3d906143c7565b915050610ba3565b50600090505b919050565b60066020528060005260406000206000915090508060000160009054906101000a900473ffffffffffffffffffffffffffffffffffffffff1690806001018054610c9990614367565b80601f0160208091040260200160405190810160405280929190818152602001828054610cc590614367565b8015610d125780601f10610ce757610100808354040283529160200191610d12565b820191906000526020600020905b815481529060010190602001808311610cf557829003601f168201915b5050505050905082565b60008054906101000a900473ffffffffffffffffffffffffffffffffffffffff1673ffffffffffffffffffffffffffffffffffffffff163373ffffffffffffffffffffffffffffffffffffffff1614610daa576040517f08c379a0000000000000000000000000000000000000000000000000000000008152600401610da190614481565b60405180910390fd5b600073ffffffffffffffffffffffffffffffffffffffff168273ffffffffffffffffffffffffffffffffffffffff1603610e19576040517f08c379a0000000000000000000000000000000000000000000000000000000008152600401610e10906144ed565b60405180910390fd5b6000815111610e5d576040517f08c379a0000000000000000000000000000000000000000000000000000000008152600401610e5490614559565b60405180910390fd5b600073ffffffffffffffffffffffffffffffffffffffff16600760008473ffffffffffffffffffffffffffffffffffffffff1673ffffffffffffffffffffffffffffffffffffffff16815260200190815260200160002060000160009054906101000a900473ffffffffffffffffffffffffffffffffffffffff1673ffffffffffffffffffffffffffffffffffffffff1614610f2e576040517f08c379a0000000000000000000000000000000000000000000000000000000008152600401610f25906145c5565b60405180910390fd5b6000600760008473ffffffffffffffffffffffffffffffffffffffff1673ffffffffffffffffffffffffffffffffffffffff1681526020019081526020016000209050828160000160006101000a81548173ffffffffffffffffffffffffffffffffffffffff021916908373ffffffffffffffffffffffffffffffffffffffff16021790555081816001019081610fc59190614791565b5060038190806001815401808255809150506001900390600052602060002090600302016000909190919091506000820160009054906101000a900473ffffffffffffffffffffffffffffffffffffffff168160000160006101000a81548173ffffffffffffffffffffffffffffffffffffffff021916908373ffffffffffffffffffffffffffffffffffffffff1602179055506001820181600101908161106d9190614879565b5060028201816002019080546110849291906133ba565b505050505050565b6002818154811061109c57600080fd5b90600052602060002090600302016000915090508060000160009054906101000a900473ffffffffffffffffffffffffffffffffffffffff16908060010180546110e590614367565b80601f016020809104026020016040519081016040528092919081815260200182805461111190614367565b801561115e5780601f106111335761010080835404028352916020019161115e565b820191906000526020600020905b81548152906001019060200180831161114157829003601f168201915b5050505050905082565b6060600660008373ffffffffffffffffffffffffffffffffffffffff1673ffffffffffffffffffffffffffffffffffffffff1681526020019081526020016000206002018054806020026020016040519081016040528092919081815260200182805480156111f657602002820191906000526020600020905b8154815260200190600101908083116111e2575b50505050509050919050565b826000600860008381526020019081526020016000209050611224338361322a565b80611235575061123433836132f2565b5b611274576040517f08c379a000000000000000000000000000000000000000000000000000000000815260040161126b906149d3565b60405180910390fd5b60008451116112b8576040517f08c379a00000000000000000000000000000000000000000000000000000000081526004016112af90614a3f565b60405180910390fd5b60008351116112fc576040517f08c379a00000000000000000000000000000000000000000000000000000000081526004016112f390614ad1565b60405180910390fd5b6000600860008781526020019081526020016000209050600081600701549050600060405180606001604052808881526020018781526020013373ffffffffffffffffffffffffffffffffffffffff16815250905080836006016000848152602001908152602001600020600082015181600001908161137c9190614791565b5060208201518160010190816113929190614791565b5060408201518160020160006101000a81548173ffffffffffffffffffffffffffffffffffffffff021916908373ffffffffffffffffffffffffffffffffffffffff1602179055509050508260070160008154809291906113f2906143c7565b91905055505050505050505050565b60056020528060005260406000206000915090508060000160009054906101000a900473ffffffffffffffffffffffffffffffffffffffff169080600101805461144a90614367565b80601f016020809104026020016040519081016040528092919081815260200182805461147690614367565b80156114c35780601f10611498576101008083540402835291602001916114c3565b820191906000526020600020905b8154815290600101906020018083116114a657829003601f168201915b5050505050905082565b600080600090505b600280549050811015611577578273ffffffffffffffffffffffffffffffffffffffff166002828154811061150d5761150c614309565b5b906000526020600020906003020160000160009054906101000a900473ffffffffffffffffffffffffffffffffffffffff1673ffffffffffffffffffffffffffffffffffffffff160361156457600191505061157d565b808061156f906143c7565b9150506114d5565b50600090505b919050565b60095481565b6003818154811061159857600080fd5b90600052602060002090600302016000915090508060000160009054906101000a900473ffffffffffffffffffffffffffffffffffffffff16908060010180546115e190614367565b80601f016020809104026020016040519081016040528092919081815260200182805461160d90614367565b801561165a5780601f1061162f5761010080835404028352916020019161165a565b820191906000526020600020905b81548152906001019060200180831161163d57829003601f168201915b5050505050905082565b6060600560008373ffffffffffffffffffffffffffffffffffffffff1673ffffffffffffffffffffffffffffffffffffffff1681526020019081526020016000206002018054806020026020016040519081016040528092919081815260200182805480156116f257602002820191906000526020600020905b8154815260200190600101908083116116de575b50505050509050919050565b60606001805480602002602001604051908101604052809291908181526020016000905b8282101561189457838290600052602060002090600302016040518060600160405290816000820160009054906101000a900473ffffffffffffffffffffffffffffffffffffffff1673ffffffffffffffffffffffffffffffffffffffff1673ffffffffffffffffffffffffffffffffffffffff1681526020016001820180546117ab90614367565b80601f01602080910402602001604051908101604052809291908181526020018280546117d790614367565b80156118245780601f106117f957610100808354040283529160200191611824565b820191906000526020600020905b81548152906001019060200180831161180757829003601f168201915b505050505081526020016002820180548060200260200160405190810160405280929190818152602001828054801561187c57602002820191906000526020600020905b815481526020019060010190808311611868575b50505050508152505081526020019060010190611722565b50505050905090565b600481815481106118ad57600080fd5b90600052602060002090600802016000915090508060000154908060010180546118d690614367565b80601f016020809104026020016040519081016040528092919081815260200182805461190290614367565b801561194f5780601f106119245761010080835404028352916020019161194f565b820191906000526020600020905b81548152906001019060200180831161193257829003601f168201915b50505050509080600201805461196490614367565b80601f016020809104026020016040519081016040528092919081815260200182805461199090614367565b80156119dd5780601f106119b2576101008083540402835291602001916119dd565b820191906000526020600020905b8154815290600101906020018083116119c057829003601f168201915b5050505050908060070154905084565b6060806060806060806060806000600860008b81526020019081526020016000209050806001018054611a1f90614367565b80601f0160208091040260200160405190810160405280929190818152602001828054611a4b90614367565b8015611a985780601f10611a6d57610100808354040283529160200191611a98565b820191906000526020600020905b815481529060010190602001808311611a7b57829003601f168201915b50505050509850806002018054611aae90614367565b80601f0160208091040260200160405190810160405280929190818152602001828054611ada90614367565b8015611b275780601f10611afc57610100808354040283529160200191611b27565b820191906000526020600020905b815481529060010190602001808311611b0a57829003601f168201915b5050505050975080600301805480602002602001604051908101604052809291908181526020018280548015611bb257602002820191906000526020600020905b8160009054906101000a900473ffffffffffffffffffffffffffffffffffffffff1673ffffffffffffffffffffffffffffffffffffffff1681526020019060010190808311611b68575b5050505050965080600401805480602002602001604051908101604052809291908181526020018280548015611c3d57602002820191906000526020600020905b8160009054906101000a900473ffffffffffffffffffffffffffffffffffffffff1673ffffffffffffffffffffffffffffffffffffffff1681526020019060010190808311611bf3575b5050505050955080600501805480602002602001604051908101604052809291908181526020018280548015611cc857602002820191906000526020600020905b8160009054906101000a900473ffffffffffffffffffffffffffffffffffffffff1673ffffffffffffffffffffffffffffffffffffffff1681526020019060010190808311611c7e575b505050505094506000816007015490508067ffffffffffffffff811115611cf257611cf1613a5c565b5b604051908082528060200260200182016040528015611d2557816020015b6060815260200190600190039081611d105790505b5094508067ffffffffffffffff811115611d4257611d41613a5c565b5b604051908082528060200260200182016040528015611d7557816020015b6060815260200190600190039081611d605790505b5093508067ffffffffffffffff811115611d9257611d91613a5c565b5b604051908082528060200260200182016040528015611dc05781602001602082028036833780820191505090505b50925060005b81811015611fe5578260060160008281526020019081526020016000206000018054611df190614367565b80601f0160208091040260200160405190810160405280929190818152602001828054611e1d90614367565b8015611e6a5780601f10611e3f57610100808354040283529160200191611e6a565b820191906000526020600020905b815481529060010190602001808311611e4d57829003601f168201915b5050505050868281518110611e8257611e81614309565b5b60200260200101819052508260060160008281526020019081526020016000206001018054611eb090614367565b80601f0160208091040260200160405190810160405280929190818152602001828054611edc90614367565b8015611f295780601f10611efe57610100808354040283529160200191611f29565b820191906000526020600020905b815481529060010190602001808311611f0c57829003601f168201915b5050505050858281518110611f4157611f40614309565b5b602002602001018190525082600601600082815260200190815260200160002060020160009054906101000a900473ffffffffffffffffffffffffffffffffffffffff16848281518110611f9857611f97614309565b5b602002602001019073ffffffffffffffffffffffffffffffffffffffff16908173ffffffffffffffffffffffffffffffffffffffff16815250508080611fdd906143c7565b915050611dc6565b505050919395975091939597565b6001818154811061200357600080fd5b90600052602060002090600302016000915090508060000160009054906101000a900473ffffffffffffffffffffffffffffffffffffffff169080600101805461204c90614367565b80601f016020809104026020016040519081016040528092919081815260200182805461207890614367565b80156120c55780601f1061209a576101008083540402835291602001916120c5565b820191906000526020600020905b8154815290600101906020018083116120a857829003601f168201915b5050505050905082565b60606002805480602002602001604051908101604052809291908181526020016000905b8282101561226557838290600052602060002090600302016040518060600160405290816000820160009054906101000a900473ffffffffffffffffffffffffffffffffffffffff1673ffffffffffffffffffffffffffffffffffffffff1673ffffffffffffffffffffffffffffffffffffffff16815260200160018201805461217c90614367565b80601f01602080910402602001604051908101604052809291908181526020018280546121a890614367565b80156121f55780601f106121ca576101008083540402835291602001916121f5565b820191906000526020600020905b8154815290600101906020018083116121d857829003601f168201915b505050505081526020016002820180548060200260200160405190810160405280929190818152602001828054801561224d57602002820191906000526020600020905b815481526020019060010190808311612239575b505050505081525050815260200190600101906120f3565b50505050905090565b60008054906101000a900473ffffffffffffffffffffffffffffffffffffffff1673ffffffffffffffffffffffffffffffffffffffff163373ffffffffffffffffffffffffffffffffffffffff16146122fc576040517f08c379a00000000000000000000000000000000000000000000000000000000081526004016122f390614481565b60405180910390fd5b600073ffffffffffffffffffffffffffffffffffffffff168273ffffffffffffffffffffffffffffffffffffffff160361236b576040517f08c379a000000000000000000000000000000000000000000000000000000000815260040161236290614b3d565b60405180910390fd5b60008151116123af576040517f08c379a00000000000000000000000000000000000000000000000000000000081526004016123a690614ba9565b60405180910390fd5b600073ffffffffffffffffffffffffffffffffffffffff16600660008473ffffffffffffffffffffffffffffffffffffffff1673ffffffffffffffffffffffffffffffffffffffff16815260200190815260200160002060000160009054906101000a900473ffffffffffffffffffffffffffffffffffffffff1673ffffffffffffffffffffffffffffffffffffffff1614612480576040517f08c379a000000000000000000000000000000000000000000000000000000000815260040161247790614c15565b60405180910390fd5b6000600660008473ffffffffffffffffffffffffffffffffffffffff1673ffffffffffffffffffffffffffffffffffffffff1681526020019081526020016000209050828160000160006101000a81548173ffffffffffffffffffffffffffffffffffffffff021916908373ffffffffffffffffffffffffffffffffffffffff160217905550818160010190816125179190614791565b5060028190806001815401808255809150506001900390600052602060002090600302016000909190919091506000820160009054906101000a900473ffffffffffffffffffffffffffffffffffffffff168160000160006101000a81548173ffffffffffffffffffffffffffffffffffffffff021916908373ffffffffffffffffffffffffffffffffffffffff160217905550600182018160010190816125bf9190614879565b5060028201816002019080546125d69291906133ba565b505050505050565b600080600090505b600180549050811015612688578273ffffffffffffffffffffffffffffffffffffffff166001828154811061261e5761261d614309565b5b906000526020600020906003020160000160009054906101000a900473ffffffffffffffffffffffffffffffffffffffff1673ffffffffffffffffffffffffffffffffffffffff160361267557600191505061268e565b8080612680906143c7565b9150506125e6565b50600090505b919050565b60008054906101000a900473ffffffffffffffffffffffffffffffffffffffff1673ffffffffffffffffffffffffffffffffffffffff163373ffffffffffffffffffffffffffffffffffffffff1614612721576040517f08c379a000000000000000000000000000000000000000000000000000000000815260040161271890614481565b60405180910390fd5b600073ffffffffffffffffffffffffffffffffffffffff168273ffffffffffffffffffffffffffffffffffffffff1603612790576040517f08c379a000000000000000000000000000000000000000000000000000000000815260040161278790614c81565b60405180910390fd5b60008151116127d4576040517f08c379a00000000000000000000000000000000000000000000000000000000081526004016127cb90614ced565b60405180910390fd5b600073ffffffffffffffffffffffffffffffffffffffff16600560008473ffffffffffffffffffffffffffffffffffffffff1673ffffffffffffffffffffffffffffffffffffffff16815260200190815260200160002060000160009054906101000a900473ffffffffffffffffffffffffffffffffffffffff1673ffffffffffffffffffffffffffffffffffffffff16146128a5576040517f08c379a000000000000000000000000000000000000000000000000000000000815260040161289c90614d59565b60405180910390fd5b6000600560008473ffffffffffffffffffffffffffffffffffffffff1673ffffffffffffffffffffffffffffffffffffffff1681526020019081526020016000209050828160000160006101000a81548173ffffffffffffffffffffffffffffffffffffffff021916908373ffffffffffffffffffffffffffffffffffffffff1602179055508181600101908161293c9190614791565b5060018190806001815401808255809150506001900390600052602060002090600302016000909190919091506000820160009054906101000a900473ffffffffffffffffffffffffffffffffffffffff168160000160006101000a81548173ffffffffffffffffffffffffffffffffffffffff021916908373ffffffffffffffffffffffffffffffffffffffff160217905550600182018160010190816129e49190614879565b5060028201816002019080546129fb9291906133ba565b505050505050565b6008602052806000526040600020600091509050806000015490806001018054612a2c90614367565b80601f0160208091040260200160405190810160405280929190818152602001828054612a5890614367565b8015612aa55780601f10612a7a57610100808354040283529160200191612aa5565b820191906000526020600020905b815481529060010190602001808311612a8857829003601f168201915b505050505090806002018054612aba90614367565b80601f0160208091040260200160405190810160405280929190818152602001828054612ae690614367565b8015612b335780601f10612b0857610100808354040283529160200191612b33565b820191906000526020600020905b815481529060010190602001808311612b1657829003601f168201915b5050505050908060070154905084565b60008054906101000a900473ffffffffffffffffffffffffffffffffffffffff1673ffffffffffffffffffffffffffffffffffffffff163373ffffffffffffffffffffffffffffffffffffffff1614612bd1576040517f08c379a0000000000000000000000000000000000000000000000000000000008152600401612bc890614dc5565b60405180910390fd5b60005b8351811015612cf457838181518110612bf057612bef614309565b5b602002602001015173ffffffffffffffffffffffffffffffffffffffff1660056000868481518110612c2557612c24614309565b5b602002602001015173ffffffffffffffffffffffffffffffffffffffff1673ffffffffffffffffffffffffffffffffffffffff16815260200190815260200160002060000160009054906101000a900473ffffffffffffffffffffffffffffffffffffffff1673ffffffffffffffffffffffffffffffffffffffff1614612ce1576040517f08c379a0000000000000000000000000000000000000000000000000000000008152600401612cd890614c81565b60405180910390fd5b8080612cec906143c7565b915050612bd4565b5060005b8251811015612e1857828181518110612d1457612d13614309565b5b602002602001015173ffffffffffffffffffffffffffffffffffffffff1660066000858481518110612d4957612d48614309565b5b602002602001015173ffffffffffffffffffffffffffffffffffffffff1673ffffffffffffffffffffffffffffffffffffffff16815260200190815260200160002060000160009054906101000a900473ffffffffffffffffffffffffffffffffffffffff1673ffffffffffffffffffffffffffffffffffffffff1614612e05576040517f08c379a0000000000000000000000000000000000000000000000000000000008152600401612dfc90614b3d565b60405180910390fd5b8080612e10906143c7565b915050612cf8565b5060005b8151811015612f3c57818181518110612e3857612e37614309565b5b602002602001015173ffffffffffffffffffffffffffffffffffffffff1660076000848481518110612e6d57612e6c614309565b5b602002602001015173ffffffffffffffffffffffffffffffffffffffff1673ffffffffffffffffffffffffffffffffffffffff16815260200190815260200160002060000160009054906101000a900473ffffffffffffffffffffffffffffffffffffffff1673ffffffffffffffffffffffffffffffffffffffff1614612f29576040517f08c379a0000000000000000000000000000000000000000000000000000000008152600401612f20906144ed565b60405180910390fd5b8080612f34906143c7565b915050612e1c565b50600060048054905090506004600181600181540180825580915050039060005260206000209050506000600860008381526020019081526020016000209050600954816000018190555086816001019081612f989190614791565b5085816002019081612faa9190614791565b5084816003019080519060200190612fc392919061340c565b5083816005019080519060200190612fdc92919061340c565b5082816004019080519060200190612ff592919061340c565b5060005b855181101561309a576005600087838151811061301957613018614309565b5b602002602001015173ffffffffffffffffffffffffffffffffffffffff1673ffffffffffffffffffffffffffffffffffffffff16815260200190815260200160002060020160095490806001815401808255809150506001900390600052602060002001600090919091909150558080613092906143c7565b915050612ff9565b5060005b845181101561313f57600660008683815181106130be576130bd614309565b5b602002602001015173ffffffffffffffffffffffffffffffffffffffff1673ffffffffffffffffffffffffffffffffffffffff16815260200190815260200160002060020160095490806001815401808255809150506001900390600052602060002001600090919091909150558080613137906143c7565b91505061309e565b5060005b83518110156131e4576007600085838151811061316357613162614309565b5b602002602001015173ffffffffffffffffffffffffffffffffffffffff1673ffffffffffffffffffffffffffffffffffffffff168152602001908152602001600020600201600954908060018154018082558091505060019003906000526020600020016000909190919091505580806131dc906143c7565b915050613143565b50600960008154809291906131f8906143c7565b919050555050505050505050565b60008054906101000a900473ffffffffffffffffffffffffffffffffffffffff1681565b60008060086000848152602001908152602001600020905060005b81600301805490508110156132e5578473ffffffffffffffffffffffffffffffffffffffff1682600301828154811061328157613280614309565b5b9060005260206000200160009054906101000a900473ffffffffffffffffffffffffffffffffffffffff1673ffffffffffffffffffffffffffffffffffffffff16036132d2576001925050506132ec565b80806132dd906143c7565b915050613245565b5060009150505b92915050565b60008060086000848152602001908152602001600020905060005b81600401805490508110156133ad578473ffffffffffffffffffffffffffffffffffffffff1682600401828154811061334957613348614309565b5b9060005260206000200160009054906101000a900473ffffffffffffffffffffffffffffffffffffffff1673ffffffffffffffffffffffffffffffffffffffff160361339a576001925050506133b4565b80806133a5906143c7565b91505061330d565b5060009150505b92915050565b8280548282559060005260206000209081019282156133fb5760005260206000209182015b828111156133fa5782548255916001019190600101906133df565b5b5090506134089190613496565b5090565b828054828255906000526020600020908101928215613485579160200282015b828111156134845782518260006101000a81548173ffffffffffffffffffffffffffffffffffffffff021916908373ffffffffffffffffffffffffffffffffffffffff1602179055509160200191906001019061342c565b5b5090506134929190613496565b5090565b5b808211156134af576000816000905550600101613497565b5090565b600081519050919050565b600082825260208201905092915050565b6000819050602082019050919050565b6000819050919050565b6134f2816134df565b82525050565b600061350483836134e9565b60208301905092915050565b6000602082019050919050565b6000613528826134b3565b61353281856134be565b935061353d836134cf565b8060005b8381101561356e57815161355588826134f8565b975061356083613510565b925050600181019050613541565b5085935050505092915050565b600081519050919050565b600082825260208201905092915050565b6000819050602082019050919050565b600081519050919050565b600082825260208201905092915050565b60005b838110156135e15780820151818401526020810190506135c6565b60008484015250505050565b6000601f19601f8301169050919050565b6000613609826135a7565b61361381856135b2565b93506136238185602086016135c3565b61362c816135ed565b840191505092915050565b600061364383836135fe565b905092915050565b6000602082019050919050565b60006136638261357b565b61366d8185613586565b93508360208202850161367f85613597565b8060005b858110156136bb578484038952815161369c8582613637565b94506136a78361364b565b925060208a01995050600181019050613683565b50829750879550505050505092915050565b600060608201905081810360008301526136e7818661351d565b905081810360208301526136fb8185613658565b9050818103604083015261370f8184613658565b9050949350505050565b600081519050919050565b600082825260208201905092915050565b6000819050602082019050919050565b600073ffffffffffffffffffffffffffffffffffffffff82169050919050565b600061377082613745565b9050919050565b61378081613765565b82525050565b600082825260208201905092915050565b60006137a2826134b3565b6137ac8185613786565b93506137b7836134cf565b8060005b838110156137e85781516137cf88826134f8565b97506137da83613510565b9250506001810190506137bb565b5085935050505092915050565b600060608301600083015161380d6000860182613777565b506020830151848203602086015261382582826135fe565b9150506040830151848203604086015261383f8282613797565b9150508091505092915050565b600061385883836137f5565b905092915050565b6000602082019050919050565b600061387882613719565b6138828185613724565b93508360208202850161389485613735565b8060005b858110156138d057848403895281516138b1858261384c565b94506138bc83613860565b925060208a01995050600181019050613898565b50829750879550505050505092915050565b600060208201905081810360008301526138fc818461386d565b905092915050565b6000604051905090565b600080fd5b600080fd5b61392181613765565b811461392c57600080fd5b50565b60008135905061393e81613918565b92915050565b60006020828403121561395a5761395961390e565b5b60006139688482850161392f565b91505092915050565b6000602082019050818103600083015261398b818461351d565b905092915050565b61399c81613765565b82525050565b600082825260208201905092915050565b60006139be826135a7565b6139c881856139a2565b93506139d88185602086016135c3565b6139e1816135ed565b840191505092915050565b6000604082019050613a016000830185613993565b8181036020830152613a1381846139b3565b90509392505050565b60008115159050919050565b613a3181613a1c565b82525050565b6000602082019050613a4c6000830184613a28565b92915050565b600080fd5b600080fd5b7f4e487b7100000000000000000000000000000000000000000000000000000000600052604160045260246000fd5b613a94826135ed565b810181811067ffffffffffffffff82111715613ab357613ab2613a5c565b5b80604052505050565b6000613ac6613904565b9050613ad28282613a8b565b919050565b600067ffffffffffffffff821115613af257613af1613a5c565b5b613afb826135ed565b9050602081019050919050565b82818337600083830152505050565b6000613b2a613b2584613ad7565b613abc565b905082815260208101848484011115613b4657613b45613a57565b5b613b51848285613b08565b509392505050565b600082601f830112613b6e57613b6d613a52565b5b8135613b7e848260208601613b17565b91505092915050565b60008060408385031215613b9e57613b9d61390e565b5b6000613bac8582860161392f565b925050602083013567ffffffffffffffff811115613bcd57613bcc613913565b5b613bd985828601613b59565b9150509250929050565b613bec816134df565b8114613bf757600080fd5b50565b600081359050613c0981613be3565b92915050565b600060208284031215613c2557613c2461390e565b5b6000613c3384828501613bfa565b91505092915050565b600080600060608486031215613c5557613c5461390e565b5b6000613c6386828701613bfa565b935050602084013567ffffffffffffffff811115613c8457613c83613913565b5b613c9086828701613b59565b925050604084013567ffffffffffffffff811115613cb157613cb0613913565b5b613cbd86828701613b59565b9150509250925092565b613cd0816134df565b82525050565b6000602082019050613ceb6000830184613cc7565b92915050565b600081519050919050565b600082825260208201905092915050565b6000819050602082019050919050565b6000606083016000830151613d356000860182613777565b5060208301518482036020860152613d4d82826135fe565b91505060408301518482036040860152613d678282613797565b9150508091505092915050565b6000613d808383613d1d565b905092915050565b6000602082019050919050565b6000613da082613cf1565b613daa8185613cfc565b935083602082028501613dbc85613d0d565b8060005b85811015613df85784840389528151613dd98582613d74565b9450613de483613d88565b925060208a01995050600181019050613dc0565b50829750879550505050505092915050565b60006020820190508181036000830152613e248184613d95565b905092915050565b6000608082019050613e416000830187613cc7565b8181036020830152613e5381866139b3565b90508181036040830152613e6781856139b3565b9050613e766060830184613cc7565b95945050505050565b600081519050919050565b600082825260208201905092915050565b6000819050602082019050919050565b6000613eb78383613777565b60208301905092915050565b6000602082019050919050565b6000613edb82613e7f565b613ee58185613e8a565b9350613ef083613e9b565b8060005b83811015613f21578151613f088882613eab565b9750613f1383613ec3565b925050600181019050613ef4565b5085935050505092915050565b6000610100820190508181036000830152613f49818b6139b3565b90508181036020830152613f5d818a6139b3565b90508181036040830152613f718189613ed0565b90508181036060830152613f858188613ed0565b90508181036080830152613f998187613ed0565b905081810360a0830152613fad8186613658565b905081810360c0830152613fc18185613658565b905081810360e0830152613fd58184613ed0565b90509998505050505050505050565b600081519050919050565b600082825260208201905092915050565b6000819050602082019050919050565b60006060830160008301516140286000860182613777565b506020830151848203602086015261404082826135fe565b9150506040830151848203604086015261405a8282613797565b9150508091505092915050565b60006140738383614010565b905092915050565b6000602082019050919050565b600061409382613fe4565b61409d8185613fef565b9350836020820285016140af85614000565b8060005b858110156140eb57848403895281516140cc8582614067565b94506140d78361407b565b925060208a019950506001810190506140b3565b50829750879550505050505092915050565b600060208201905081810360008301526141178184614088565b905092915050565b600067ffffffffffffffff82111561413a57614139613a5c565b5b602082029050602081019050919050565b600080fd5b600061416361415e8461411f565b613abc565b905080838252602082019050602084028301858111156141865761418561414b565b5b835b818110156141af578061419b888261392f565b845260208401935050602081019050614188565b5050509392505050565b600082601f8301126141ce576141cd613a52565b5b81356141de848260208601614150565b91505092915050565b600080600080600060a086880312156142035761420261390e565b5b600086013567ffffffffffffffff81111561422157614220613913565b5b61422d88828901613b59565b955050602086013567ffffffffffffffff81111561424e5761424d613913565b5b61425a88828901613b59565b945050604086013567ffffffffffffffff81111561427b5761427a613913565b5b614287888289016141b9565b935050606086013567ffffffffffffffff8111156142a8576142a7613913565b5b6142b4888289016141b9565b925050608086013567ffffffffffffffff8111156142d5576142d4613913565b5b6142e1888289016141b9565b9150509295509295909350565b60006020820190506143036000830184613993565b92915050565b7f4e487b7100000000000000000000000000000000000000000000000000000000600052603260045260246000fd5b7f4e487b7100000000000000000000000000000000000000000000000000000000600052602260045260246000fd5b6000600282049050600182168061437f57607f821691505b60208210810361439257614391614338565b5b50919050565b7f4e487b7100000000000000000000000000000000000000000000000000000000600052601160045260246000fd5b60006143d2826134df565b91507fffffffffffffffffffffffffffffffffffffffffffffffffffffffffffffffff820361440457614403614398565b5b600182019050919050565b7f4f6e6c792061646d696e2063616e20706572666f726d2074686973206f70657260008201527f6174696f6e000000000000000000000000000000000000000000000000000000602082015250565b600061446b6025836139a2565b91506144768261440f565b604082019050919050565b6000602082019050818103600083015261449a8161445e565b9050919050565b7f496e76616c6964206c6177796572206164647265737300000000000000000000600082015250565b60006144d76016836139a2565b91506144e2826144a1565b602082019050919050565b60006020820190508181036000830152614506816144ca565b9050919050565b7f4c6177796572206e616d652063616e6e6f7420626520656d7074790000000000600082015250565b6000614543601b836139a2565b915061454e8261450d565b602082019050919050565b6000602082019050818103600083015261457281614536565b9050919050565b7f4c617779657220616c7265616479206578697374730000000000000000000000600082015250565b60006145af6015836139a2565b91506145ba82614579565b602082019050919050565b600060208201905081810360008301526145de816145a2565b9050919050565b60008190508160005260206000209050919050565b60006020601f8301049050919050565b600082821b905092915050565b6000600883026146477fffffffffffffffffffffffffffffffffffffffffffffffffffffffffffffffff8261460a565b614651868361460a565b95508019841693508086168417925050509392505050565b6000819050919050565b600061468e614689614684846134df565b614669565b6134df565b9050919050565b6000819050919050565b6146a883614673565b6146bc6146b482614695565b848454614617565b825550505050565b600090565b6146d16146c4565b6146dc81848461469f565b505050565b5b81811015614700576146f56000826146c9565b6001810190506146e2565b5050565b601f82111561474557614716816145e5565b61471f846145fa565b8101602085101561472e578190505b61474261473a856145fa565b8301826146e1565b50505b505050565b600082821c905092915050565b60006147686000198460080261474a565b1980831691505092915050565b60006147818383614757565b9150826002028217905092915050565b61479a826135a7565b67ffffffffffffffff8111156147b3576147b2613a5c565b5b6147bd8254614367565b6147c8828285614704565b600060209050601f8311600181146147fb57600084156147e9578287015190505b6147f38582614775565b86555061485b565b601f198416614809866145e5565b60005b828110156148315784890151825560018201915060208501945060208101905061480c565b8683101561484e578489015161484a601f891682614757565b8355505b6001600288020188555050505b505050505050565b60008154905061487281614367565b9050919050565b81810361488757505061495f565b61489082614863565b67ffffffffffffffff8111156148a9576148a8613a5c565b5b6148b38254614367565b6148be828285614704565b6000601f8311600181146148ed57600084156148db578287015490505b6148e58582614775565b865550614958565b601f1984166148fb876145e5565b9650614906866145e5565b60005b8281101561492e57848901548255600182019150600185019450602081019050614909565b8683101561494b5784890154614947601f891682614757565b8355505b6001600288020188555050505b5050505050505b565b7f4f6e6c79206a756467657320616e64206c617779657273206f6620746865206360008201527f6173652063616e20706572666f726d2074686973206f7065726174696f6e0000602082015250565b60006149bd603e836139a2565b91506149c882614961565b604082019050919050565b600060208201905081810360008301526149ec816149b0565b9050919050565b7f446f63756d656e7420686173682063616e6e6f7420626520656d707479000000600082015250565b6000614a29601d836139a2565b9150614a34826149f3565b602082019050919050565b60006020820190508181036000830152614a5881614a1c565b9050919050565b7f446f63756d656e74206465736372697074696f6e2063616e6e6f74206265206560008201527f6d70747900000000000000000000000000000000000000000000000000000000602082015250565b6000614abb6024836139a2565b9150614ac682614a5f565b604082019050919050565b60006020820190508181036000830152614aea81614aae565b9050919050565b7f496e76616c696420636c69656e74206164647265737300000000000000000000600082015250565b6000614b276016836139a2565b9150614b3282614af1565b602082019050919050565b60006020820190508181036000830152614b5681614b1a565b9050919050565b7f436c69656e74206e616d652063616e6e6f7420626520656d7074790000000000600082015250565b6000614b93601b836139a2565b9150614b9e82614b5d565b602082019050919050565b60006020820190508181036000830152614bc281614b86565b9050919050565b7f436c69656e7420616c7265616479206578697374730000000000000000000000600082015250565b6000614bff6015836139a2565b9150614c0a82614bc9565b602082019050919050565b60006020820190508181036000830152614c2e81614bf2565b9050919050565b7f496e76616c6964206a7564676520616464726573730000000000000000000000600082015250565b6000614c6b6015836139a2565b9150614c7682614c35565b602082019050919050565b60006020820190508181036000830152614c9a81614c5e565b9050919050565b7f4a75646765206e616d652063616e6e6f7420626520656d707479000000000000600082015250565b6000614cd7601a836139a2565b9150614ce282614ca1565b602082019050919050565b60006020820190508181036000830152614d0681614cca565b9050919050565b7f4a7564676520616c726561647920657869737473000000000000000000000000600082015250565b6000614d436014836139a2565b9150614d4e82614d0d565b602082019050919050565b60006020820190508181036000830152614d7281614d36565b9050919050565b7f4f6e6c792061646d696e2063616e206372656174652063617365730000000000600082015250565b6000614daf601b836139a2565b9150614dba82614d79565b602082019050919050565b60006020820190508181036000830152614dde81614da2565b905091905056fea2646970667358221220283296e509ef7febe58cfe5818a0e70c66479eaa62e6eb7c42079d623e4c154564736f6c63430008130033",
  "linkReferences": {},
  "deployedLinkReferences": {}
}